:020000040800F2
:1000000000280020D10C00085D0C0008610C0008DD
:10001000650C0008690C00086D0C00080000000069
:10002000000000000000000000000000710C00084B
:10003000750C000800000000790C00087D0C000819
:10004000190D0008190D0008190D0008190D0008F8
:10005000190D0008190D0008190D0008190D0008E8
:10006000190D0008190D0008190D0008190D0008D8
:10007000190D0008190D0008190D0008190D0008C8
:10008000190D0008190D0008190D0008190D0008B8
:10009000190D0008190D0008190D0008190D0008A8
:1000A000190D0008190D0008190D0008190D000898
:1000B000190D0008190D000800000000190D0008B6
:1000C000190D00080000000000000000190D0008D4
:1000D00000000000190D0008190D000800000000C4
:1000E000190D0008190D0008190D00080000000086
:1000F0000000000000000000000000000000000000
:0C01000000000000000000005FF808F1A3
:10010C0010B5054C237833B9044B13B10448AFF345
:10011C0000800123237010BD0C00002000000000A3
:10012C00780D0008084B10B51BB108490848AFF30F
:10013C0000800848036803B910BD074B002BFBD0A7
:10014C00BDE81040184700BF000000001000002060
:10015C00780D00080C0000200000000010B50446CB
:10016C000E4B18784FF47A73B3FBF0F30C4A10680B
:10017C00B0FBF3F000F092F858B90F2C0BD800221A
:10018C0021464FF0FF3000F057F8044B5C60002024
:10019C0010BD012010BD012010BD00BF00000020CB
:1001AC000800002008B5074A136843F010031360D9
:1001BC00032000F02FF80020FFF7D0FF00F026FD01
:1001CC00002008BD00200240034A13680349097847
:1001DC000B441360704700BF280000200000002073
:1001EC00014B1868704700BF2800002038B5044642
:1001FC00FFF7F6FF0546B4F1FF3F02D0044B1B7826
:10020C001C44FFF7EDFF401B8442FAD838BD00BFF9
:10021C0000000020074AD36823F4E0631B041B0C86
:10022C00000200F4E060184340F0BF6040F400307E
:10023C00D060704700ED00E030B4164BDB68C3F3C0
:10024C000223C3F10704042C28BF04241D1D062D12
:10025C0001D9DD1E00E00025012303FA04F4013C62
:10026C002140A940AB40013B1A400A43002806DA62
:10027C0000F00F001201D2B2074B1A5407E0120122
:10028C00D2B200F1604000F5614080F8002330BC30
:10029C00704700BF00ED00E014ED00E00138B0F154
:1002AC00807F0AD2064B5860F021064A82F8231050
:1002BC000020986007221A6070470120704700BF29
:1002CC0010E000E000ED00E0F0B583B0002634460D
:1002DC00CFE00122A2400B6813409A4240F0C88044
:1002EC004D68122D2DD00BD8022D27D003D85DB31D
:1002FC00012D1ED035E0032D30D0112D1BD030E058
:10030C005E4FBD4220D008D8A7F58017BD421BD048
:10031C0007F58037BD4224D116E0594FBD4213D0AA
:10032C0007F58037BD420FD0A7F58017BD4218D115
:10033C000AE0CE6815E0CE68043612E0CE680836C6
:10034C000FE0CE680C360CE08D684DB1012D02D15A
:10035C000261082605E04261082602E0002600E062
:10036C000426FF2B01D8864601E000F1040EFF2B7A
:10037C0001D8A20002E0A4F108029200DEF800709D
:10038C000F25954027EA050506FA02F22A43CEF816
:10039C0000204A6812F0805F6AD03A4A956945F0AD
:1003AC0001059561926902F001020192019AA70878
:1003BC00BD1C354A52F8255004F0030292004FF050
:1003CC000F0E0EFA02FE25EA0E0E304DA84209D091
:1003DC0005F58065A84207D005F58065A84205D1D2
:1003EC00022504E0002502E0012500E0032505FAC2
:1003FC0002F24EEA02020237234D45F827204A68E2
:10040C0012F4803F05D005F580652A681A432A60EE
:10041C0004E01F4D2A6822EA03022A604A6812F49B
:10042C00003F04D01A4D6A681A436A6004E0184D04
:10043C006A6822EA03026A604A6812F4801F04D0D8
:10044C00134DAA681A43AA6004E0114DAA6822EA67
:10045C000302AA604A6812F4001F04D00C4DEA682B
:10046C001343EB6004E00A4DEA6822EA0303EB60F5
:10047C0001340F2C7FF62DAF03B0F0BD000021101E
:10048C000000311000100240000001400008014043
:10049C00000401400AB10161704709040161704711
:1004AC00C3685940C160704782B0084B1B68084A4A
:1004BC00A2FB03235B0A00FB03F0019000BF019B2E
:1004CC005A1E0192002BF9D102B07047080000208F
:1004DC00D34D621070B582B00446036813F0010F5F
:1004EC006BD0A84B5B6803F00C03042B0AD0A54B14
:1004FC005B6803F00C03082B0DD1A24B5B6813F463
:10050C00803F08D09F4B1B6813F4003F55D06368A5
:10051C00002B52D1B8E16368B3F5803F05D1994AFD
:10052C00136843F48033136026E063B903F180430E
:10053C0003F504331A6822F480321A601A6822F424
:10054C0080221A6018E0B3F5A02F0CD103F1804380
:10055C00A3F53C331A6842F480221A601A6842F4FC
:10056C0080321A6008E0874B1A6822F480321A60D5
:10057C001A6822F480221A6063687BB1FFF730FEA0
:10058C00054605E0FFF72CFE401B642800F27E8137
:10059C007C4B1B6813F4003FF4D00EE0FFF720FEF9
:1005AC00054605E0FFF71CFE401B642800F2708135
:1005BC00744B1B6813F4003FF4D1236813F0020F43
:1005CC0050D0704B5B6813F00C0F0AD06D4B5B680E
:1005DC0003F00C03082B16D16A4B5B6813F4803FB5
:1005EC0011D1684B1B6813F0020F03D02369012B48
:1005FC0040F05081634A136823F0F803616943EAC1
:10060C00C10313602EE02369D3B101225E4B1A6043
:10061C00FFF7E6FD054605E0FFF7E2FD401B02286B
:10062C0000F23A81574B1B6813F0020FF4D0554A75
:10063C00136823F0F803616943EAC103136011E006
:10064C000022514B1A60FFF7CBFD054605E0FFF782
:10065C00C7FD401B022800F221814A4B1B6813F096
:10066C00020FF4D1236813F0080F29D0A369ABB1A2
:10067C000122464B1A60FFF7B3FD054605E0FFF774
:10068C00AFFD401B022800F20B813E4B5B6A13F05E
:10069C00020FF4D00120FFF707FF11E000223B4BC3
:1006AC001A60FFF79DFD054605E0FFF799FD401B1D
:1006BC00022800F2F780334B5B6A13F0020FF4D17F
:1006CC00236813F0040F00F089802E4BDB6913F0C4
:1006DC00805F0BD12B4BDA6942F08052DA61DB6917
:1006EC0003F080530193019B012500E00025284B6A
:1006FC001B6813F4807F13D1254A136843F480736D
:10070C001360FFF76DFD064605E0FFF769FD801BE2
:10071C00642800F2C9801E4B1B6813F4807FF4D050
:10072C00E368012B05D1174A136A43F001031362E6
:10073C0022E063B903F1804303F504331A6A22F013
:10074C0001021A621A6A22F004021A6214E0052BE2
:10075C0009D10C4B1A6A42F004021A621A6A42F06E
:10076C0001021A6208E0074B1A6A22F001021A62AF
:10077C001A6A22F004021A62E368CBB1FFF730FD6B
:10078C0006460FE000100240000042428004424244
:10079C0000700040FFF724FD801B41F28833984223
:1007AC0000F28480494B1B6A13F0020FF2D00FE069
:1007BC00FFF716FD064606E0FFF712FD801B41F21F
:1007CC008833984274D8414B1B6A13F0020FF3D153
:1007DC0025B13E4AD36923F08053D361E369002BE2
:1007EC0068D03A4A526802F00C02082A64D0022BF4
:1007FC0037D10022364B1A60FFF7F2FC054604E0B5
:10080C00FFF7EEFC401B022858D8304B1B6813F046
:10081C00007FF5D1236AB3F5803F06D12B494B6895
:10082C0023F40032A36813434B602848436823F435
:10083C007411236A626A13430B4343600122244BF5
:10084C001A60FFF7CDFC044604E0FFF7C9FC001B5F
:10085C00022835D81D4B1B6813F0007FF5D0002003
:10086C0031E000221A4B1A60FFF7BAFC044604E090
:10087C00FFF7B6FC001B022824D8144B1B6813F09E
:10088C00007FF5D100201EE001201CE003201AE0BF
:10089C00032018E0012016E0032014E0032012E0EE
:1008AC00032010E003200EE003200CE003200AE0FC
:1008BC00032008E0002006E0012004E0032002E011
:1008CC00032000E0032002B070BD00BF0010024006
:1008DC006000424230B486B0164D02AC286869689C
:1008EC00AA68EB680FC42B8AADF80430124B5B6816
:1008FC0003F00C02082A19D1C3F3834206A90A4457
:10090C0012F8100C13F4803F0CD00B4B5B68C3F344
:10091C0040430B4413F8142C084B03FB00F0B0FBC2
:10092C00F2F004E0064B03FB00F000E0034806B0D5
:10093C0030BC7047900D00080010024000127A0085
:10094C0000093D0070B5654B1B6803F007038B4233
:10095C000BD2624A136823F007030B43136013682E
:10096C0003F00703994240F0A880036813F0020FCC
:10097C0017D013F0040F04D0594A536843F4E063C2
:10098C005360036813F0080F04D0554A536843F4BE
:10099C0060535360524C636823F0F0028368134336
:1009AC0063600D460446036813F0010F4DD0426896
:1009BC00012A05D14A4B1B6813F4003F0DD17EE090
:1009CC00022A05D1464B1B6813F0007F05D178E055
:1009DC00434B1B6813F0020F75D041494B6823F051
:1009EC00030313434B60FFF7FBFB06466368012BC5
:1009FC000ED106E0FFF7F4FB801B41F288339842DE
:100A0C0063D8374B5B6803F00C03042BF2D11CE06A
:100A1C00022B15D106E0FFF7E3FB801B41F2883374
:100A2C00984254D82E4B5B6803F00C03082BF2D180
:100A3C000BE0FFF7D5FB801B41F28833984248D876
:100A4C00274B5B6813F00C0FF3D1244B1B6803F09E
:100A5C0007039D420AD2214A136823F007032B4354
:100A6C001360136803F007039D4234D1236813F01D
:100A7C00040F06D01A494B6823F4E062E368134371
:100A8C004B60236813F0080F07D0154A536823F402
:100A9C006053216943EAC1035360FFF71BFF104BFE
:100AAC005B68C3F303130F4AD35CD8400E4B18603A
:100ABC000020FFF753FB002070BD012070BD01200A
:100ACC0070BD012070BD012070BD032070BD0320DE
:100ADC0070BD032070BD012070BD00BF002002401E
:100AEC0000100240A40D00080800002010B588B0CA
:100AFC0000220492059206920792174B996941F0D5
:100B0C0020019961996901F020010191019999697C
:100B1C0041F008019961996901F00801029102996B
:100B2C00996941F0040199619B6903F004030393F3
:100B3C00039B0A4C4FF470412046FFF7ABFC4FF47B
:100B4C0070430493012305930693079304A920464D
:100B5C00FFF7BAFB08B010BD00100240000C0140BA
:100B6C0030B591B02822002106A800F0F7F8002437
:100B7C0001940294039404940594012206924FF478
:100B8C00803307930A9202250D950E934FF4E013D0
:100B9C000F9306A8FFF79EFC0F2301930295039475
:100BAC004FF4806304930594294601A8FFF7CAFE0D
:100BBC0011B030BD08B5FFF7F5FAFFF7D1FFFFF71D
:100BCC0095FF114C4FF480512046FFF769FC0A2029
:100BDC00FFF70CFB4FF400512046FFF761FC0A2095
:100BEC00FFF704FB4FF480412046FFF759FC0A2025
:100BFC00FFF7FCFA4FF400412046FFF751FC0A20A6
:100C0C00FFF7F4FADDE700BF000C014082B00E4B99
:100C1C009A6942F001029A619A6902F0010200920B
:100C2C00009ADA6942F08052DA61DB6903F0805392
:100C3C000193019B054A536823F0E06343F0007372
:100C4C00536002B0704700BF00100240000001402A
:100C5C00704700BFFEE700BFFEE700BFFEE700BF26
:100C6C00FEE700BF704700BF704700BF704700BF72
:100C7C0008B5FFF7A9FA08BD0F4B1A6842F001023C
:100C8C001A6059680D4A0A405A601A6822F0847238
:100C9C0022F480321A601A6822F480221A605A6890
:100CAC0022F4FE025A604FF41F029A604FF0006269
:100CBC00034B9A60704700BF001002400000FFF821
:100CCC0000ED00E0002103E00B4B5B584350043176
:100CDC000A480B4B42189A42F6D30A4A02E0002308
:100CEC0042F8043B084B9A42F9D3FFF7C5FF00F0DA
:100CFC000FF8FFF75FFF7047C40D000800000020DD
:100D0C000C0000200C0000202C000020FEE700004E
:100D1C000E4B70B51E460E4C0025E41AA410A542CD
:100D2C0004D056F8253098470135F8E700F01EF846
:100D3C00084B094C1E46E41AA4100025A54204D009
:100D4C0056F8253098470135F8E770BDBC0D000802
:100D5C00BC0D0008BC0D0008C00D00080346024481
:100D6C00934202D003F8011BFAE77047F8B500BFB5
:100D7C00F8BC08BC9E467047F8B500BFF8BC08BC70
:040D8C009E467047C8
:100D900002030405060708090A0B0C0D0E0F1010BC
:100DA0000102000000000000000000000102030436
:0C0DB0000607080900000000010203040F
:040DBC0031010008F9
:040DC0000D01000819
:0C0DC400010000001000000000A24A0422
:0400000508000CD112
:00000001FF
